:020000040800F2
:10000000B032012069020008710200087302000882
:10001000750200087702000879020008000000005D
:10002000000000000000000000000000A501000822
:100030007D02000800000000F50100083D120008E4
:10004000830200088302000883020008830200087C
:10005000830200088302000883020008830200086C
:10006000830200088302000883020008830200085C
:10007000830200088302000883020008830200084C
:10008000830200088302000883020008830200083C
:10009000830200088302000883020008830200082C
:1000A000830200088302000883020008830200081C
:1000B000830200088302000883020008830200080C
:1000C00083020008830200088302000883020008FC
:1000D0008302000883020008A515000883020008B7
:1000E00083020008830200088302000883020008DC
:1000F00083020008830200088302000883020008CC
:1001000083020008830200088302000883020008BB
:1001100083020008830200088302000883020008AB
:10012000830200088302000883020008830200089B
:10013000830200088302000883020008830200088B
:10014000830200088302000883020008830200087B
:10015000830200088302000883020008830200086B
:10016000830200088302000883020008830200085B
:10017000830200088302000883020008830200084B
:100180008302000883020008DFF80CD000F046FA72
:1001900000480047651C0008B032012040BA704793
:1001A000C0BA7047284B19680868B0E8F04F80F370
:1001B0000988BFF36F8F4FF0000080F311887047FC
:1001C0000000000005480068006880F3088862B6F7
:1001D000BFF34F8FBFF36F8F00DF00BF08ED00E06C
:1001E000DFF80C00016841F470010160704700BF46
:1001F00088ED00E0EFF30980BFF36F8F124B1A68B0
:100200001EF0100F08BF20ED108A20E9F04F10609B
:1002100008B44FF0500080F3118802F015FE4FF043
:10022000000080F3118808BC19680868B0E8F04F36
:100230001EF0100F08BFB0EC108A80F30988BFF3DE
:100240006F8F704700BF0000EC000020EFF31180BB
:100250004FF0500181F31188704780F31188704787
:10026000EFF30580704700000648804706480047C6
:10027000FEE7FEE7FEE7FEE7FEE7FEE7FEE7FEE756
:10028000FEE7FEE7611200088901000840EA010369
:100290009B0703D009E008C9121F08C0042AFAD23C
:1002A00003E011F8013B00F8013B521EF9D2704700
:1002B000D2B201E000F8012B491EFBD270470022A8
:1002C000F6E710B513460A4604461946FFF7F0FF55
:1002D000204610BD2DE9FE4F81EA030404F00044DE
:1002E00021F0004100944FF0000B23F0004350EA4E
:1002F000010402D052EA030404D10020014603B0F5
:10030000BDE8F08FC3F30A54C1F30A552C44A4F29C
:10031000F3340194A0FB0254C1F3130141F48011A2
:10032000C3F3130343F4801301FB024400FB034EA9
:10033000840A970A44EA815447EA8357A4FB076872
:1003400002958D0A05FB07854FEA932C04FB0C549C
:100350002705029D4FEA065847EA1637B5EB080510
:100360006EEB070C870E920E47EA811742EA831262
:10037000A7FB0201B6EB0B0164EB00042B0D43EA73
:100380000C335E1844EB1C50DA465146E7FB020181
:10039000C5F313044FEA0B3343EA14534FEA043214
:1003A000019C43EA0603A4F10C040294009CCDE9ED
:1003B00000B400F0E0F8A2E72DE9F04D81EA030473
:1003C00004F0004B21F0004514464FF0000A23F0E2
:1003D000004150EA050220D054EA01021DD0C5F3C5
:1003E0000A570246C5F31303C1F31300C1F30A56BB
:1003F00040F4801543F48013A7EB0608101BD64683
:1004000008F2FD3873EB050002D308F1010801E0A2
:1004100092185B41B8F1000F03DA00200146BDE8F5
:10042000F08D00204FF48011064684460EE0171B25
:1004300073EB050705D3121B63EB050306434CEA78
:10044000010C49084FEA300092185B4150EA01075D
:10045000EDD152EA030012D082EA040083EA0501DA
:10046000084303D100224FF0004308E0101BAB41CA
:1004700002D20122002302E06FF0010253101AEBB6
:1004800006004CEB085110EB0A0041EB0B01BDE8F4
:10049000F04D00F063B80EB5C10F80EAE07008447B
:1004A000CA07002140F233438DE80E000A460B468E
:1004B00000F061F803B000BD01F0004330B421F05A
:1004C000004150EA010206D00A0DA2F56072C1F3A4
:1004D0001301002A02DC30BC00207047440F44EABC
:1004E000C104C100E01830BC00EBC250AFF3008083
:1004F0000029A8BF7047401C490008BF20F0010038
:10050000704710B4B0FA80FC00FA0CF050EA010415
:1005100004BF10BC704749B1CCF1200421FA04F4A7
:1005200011FA0CF118BF012121430843A3EB0C0180
:10053000CB1D0106000A002BBEBF002010BC704777
:1005400000EBC35010440029A4BF10BC7047401CEE
:10055000490008BF20F0010010BC704710B5002B07
:1005600008DA401C41F1000192185B411A4301D1A5
:1005700020F0010010BD2DE9F04D92469B4611B1CF
:10058000B1FA81F202E0B0FA80F22032904600F037
:1005900057F804460F4640EA0A0041EA0B01534669
:1005A0005A46084303D120463946BDE8F08D11462E
:1005B00053EA010015D0C8F14002504600F04FF850
:1005C00005460E4650465946424600F039F8084363
:1005D00001D0012000E00020054346EAE0762C43EC
:1005E00037430A984FEA4453A0EB08004FEAD4245B
:1005F0000A304FF0000244EA47544FEAD72502D5AB
:1006000000200146D1E7010510196941DDE90845DF
:1006100000196941BDE8F04DA0E70000064C074D08
:1006200006E0E06840F0010394E8070098471034C2
:10063000AC42F6D3FFF7ACFD183C0008383C00088C
:10064000202A04DB203A00FA02F100207047914092
:10065000C2F1200320FA03F3194390407047202A87
:1006600004DB203A21FA02F00021704721FA02F35C
:10067000D040C2F12002914008431946704770B53E
:1006800001EB020410F8015B15F0070301D110F82B
:10069000013B2A1106D110F8012B03E010F8016B81
:1006A00001F8016B5B1EF9D12B0705D40023521E04
:1006B0000FD401F8013BFAE710F8013B02F1020206
:1006C000A1EB030303E013F8015B01F8015B521E89
:1006D000F9D5A142D6D3002070BD002806D04DF632
:1006E00004521146491EFDD1401EFAD17047002820
:1006F00006D04DF604521146491EFDD1401EFAD1D6
:100700007047000030B51A498379026853B30B680B
:1007100093430B600A1D13680468A34313600279B6
:100720000A441368046823431360114A08321368AB
:100730000468A3431360131D1C680568AC431C6068
:100740004479102C05D021440A68006802430A60ED
:1007500030BD1168046821431160196800680143C5
:10076000196030BD0079084401689143016030BDD3
:10077000003C01407CB5684600F0ABF8204E0222F8
:100780000C21304600F091F802220D21304600F095
:100790008CF802220E21304600F087F802220F2149
:1007A000304600F082F84FF47040022500908DF83A
:1007B000045000248DF8064003208DF805008DF8C4
:1007C00007406946304600F01FF88DF804508DF858
:1007D00006408DF807400C200A4C00908DF805501B
:1007E0006946204600F010F807220221204600F05A
:1007F0005CF807220321204600F057F87CBD00007A
:10080000000C024000000240F0B500230124032741
:100810000D6804FA03F21540954242D1D0F800C0A9
:100820005E0007FA06F52CEA050CC0F800C091F846
:1008300004C0D0F800E00CFA06FC4CEA0E0CC0F83C
:1008400000C091F804C0BCF1010F02D0BCF1020F4E
:100850001FD1D0F808C02CEA050CC0F808C091F8E8
:1008600005C0D0F808E00CFA06FC4CEA0E0CC0F803
:1008700008C0D0F804C02CEA020CC0F804C04268DA
:1008800091F806C00CFA03FC1FFA8CFC42EA0C0239
:100890004260C268AA43C260CA79C568B2402A43AE
:1008A000C2605B1C102BB3D3F0BD4B07DB0E9A402C
:1008B000C90810B500EB8100016A0F249C40A143D8
:1008C0000162016A1143016210BD418370470183D7
:1008D00070474FF6FF710160002101714171817114
:1008E000C17170470029018802D041F4806101E0A4
:1008F00021F480610180704702460020938A128BA8
:1009000043EA024323F07F42914300D10120704724
:100910000029018802D041F0010101E021F001012C
:10092000018070470029018802D041F4807101E004
:1009300021F48071018070470029018802D041F4C0
:10094000007101E021F400710180704700220B0F5B
:1009500021F07F4101D0143001E0090C183000680B
:10096000084200D001221046704700007FB50446BF
:1009700080880D4620F03F06684600F00BFB2649B4
:100980000298B0FBF1F189B20E43A680228822F0D2
:1009900001022280214B2A689A421BD85200B0FBE8
:1009A000F2F080B2042800D20420491C2184A083E4
:1009B000208840F00100208021884FF6F53001406A
:1009C000A8886A89104308432080A8892989084398
:1009D00020817FBDEB88A3F53F46FF3E05D102EBAA
:1009E0004202B0FBF2F080B208E002EBC20303EB7C
:1009F0000212B0FBF2F080B240F48040020501D157
:100A000040F001004FF4967251434FF47A72B1FBFB
:100A1000F2F140F40040C8E740420F00A086010018
:100A2000008AC0B2704712B141F0010101E001F04B
:100A3000FE01018270470182704700002DE9F041FC
:100A40002F4C064688464FF4003529462046FFF7CE
:100A50007DFF0028F9D101212046FFF763FF294DD2
:100A600020462946FFF748FF0028F9D000223146EA
:100A70002046FFF7D8FF244F20463946FFF73CFFBA
:100A80000028F9D041462046FFF7D5FF1F4F2046EA
:100A90003946FFF75BFF0028F9D001212046FFF718
:100AA0004BFF01212046FFF73DFF29462046FFF777
:100AB00023FF0028F9D0012231462046FFF7B3FF7B
:100AC000124DAD1E29462046FFF740FF0028F9D001
:100AD00000212046FFF706FF0A4D3F3529462046F4
:100AE000FFF70AFF0028F9D02046FFF799FF0546D7
:100AF00001212046FFF720FF2846BDE8F0810000D5
:100B000000540040010003008200070004000010B0
:100B10002DE9F0411F4C1646884607464FF4003534
:100B200029462046FFF712FF0028F9D1012120466F
:100B3000FFF7F8FE184D20462946FFF7DDFE002896
:100B4000F9D0002239462046FFF76DFF134D2046AD
:100B50002946FFF7D1FE0028F9D041462046FFF78D
:100B60006AFF0E4DAD1E29462046FFF7C5FE002840
:100B7000F9D031462046FFF75EFF29462046FFF7B1
:100B8000BBFE0028F9D001212046FFF7D5FEBDE8C5
:100B9000F0810000005400400100030082000700C3
:100BA00008B500208DF8000000F012F864214DF621
:100BB00004521046401EFDD1491EFAD167208DF81F
:100BC000000001222021684600F0ECF808BD00007A
:100BD000F0B5012187B0080300F0B0F90121084603
:100BE00000F088F90121102000F084F90121102083
:100BF00000F080F90121102000F07CF9394E052227
:100C000011463046FFF751FE052206213046FFF718
:100C10004CFE052207213046FFF747FE02258DF8DE
:100C2000045000248DF8064020208DF807500090D5
:100C30008DF8055069463046FFF7E6FD80200090AC
:100C400069463046FFF7E0FD402000906946304697
:100C5000FFF7DAFD244F384600F0F0F9ADF8104008
:100C60002802ADF812000720ADF81800ADF80840D2
:100C700008264FF48270ADF80C40ADF81460ADF862
:100C80000A00ADF80E40ADF8164002A9384600F053
:100C90000AFA0121384600F0C7F9009601268DF8BE
:100CA0000460124F8DF806408DF8055069463846AD
:100CB000FFF7AAFD08213846FFF709FE8DF804402A
:100CC0008DF806408DF8055000968DF8074069466E
:100CD0003846FFF799FD694638460095FFF794FDC1
:100CE00007B0F0BD0000024000300140001002409B
:100CF0002DE9F04114460546012A02D941F0C0060B
:100D000001E041F080060C4F08213846FFF7DDFD79
:100D1000304600F013F806E0002000F00FF8641EE3
:100D200005F8010BA4B2002CF6D13846BDE8F0411D
:100D30000821FFF7CCBD0000001002402DE9F04172
:100D4000154C4FF4805607462660144D03E020688A
:100D5000411E216058B10221284600F099F900286F
:100D6000F5D03946284600F09CF9266007E000F0EF
:100D700017F80DE02168481E20600029F7D00121F6
:100D8000284600F085F90028F4D0284600F087F9BD
:100D9000C0B2BDE8F08100008800002000300140B2
:100DA000FEE700002DE9F041144605460E46012AF3
:100DB00001D941F040060B4F08213846FFF785FD69
:100DC0003046FFF7BBFF05E02878FFF7B7FF641E4A
:100DD000A4B26D1C002CF7D13846BDE8F0410821C3
:100DE000FFF775BD0010024030B540F2726540F269
:100DF0002A34A84201D9284602E0A04200D2204667
:100E0000A94201D9294602E0A14200D22146AA42C4
:100E100001D92A4602E0A24200D22246AB4201D9C1
:100E20002B4602E0A34200D22346044C2060201D42
:100E30000160001D0260001D036030BD34080040E9
:100E400070B50446074D09E0641C284600F0F6FC26
:100E50004021284600F054FC0028F9D021780029D0
:100E6000F2D170BD0048004070B50F21C4780278FF
:100E700001234FF0E026E4B1124C246804F4E0644E
:100E8000C4F5E064C4F30724C4F10405E1404478E8
:100E9000AC4085780D4025430B4C29011155007855
:100EA00000F01F018B40400906EB8000C0F80031C4
:100EB00070BD02F01F008340500906EB8000C0F8AF
:100EC000803170BD0CED00E000E400E00249084311
:100ED00002490860704700000000FA050CED00E0D0
:100EE000024A1140014302480160704780FFFF1F22
:100EF00008ED00E0044A0029116801D0014300E038
:100F0000814311607047000030380240044A0029D4
:100F1000116801D0014300E0814311607047000077
:100F200040380240044A0029116801D0014300E022
:100F3000814311607047000020380240044A0029B4
:100F4000116801D0014300E0814311607047000047
:100F500044380240044A0029116801D0014300E0EE
:100F600081431160704700002438024010B5012110
:100F70000820FFF7BFFF01210420FFF7C7FF012171
:100F80000846FFF7B7FF0121BDE810404804FFF70E
:100F9000BDBF000070B5214A1168214B11F00C0152
:100FA00004D05D10042903D0082903D003601BE09E
:100FB000056019E01949091F0C68C4F380560C68D4
:100FC00004F03F0416B1B5FBF4F301E0B3FBF4F316
:100FD0000C680968C4F388146343C1F30141491CD8
:100FE0004900B3FBF1F1016011680E4B01F0F00113
:100FF00009095C5C0168E1404160146804F4E05454
:10100000A40A1C5D21FA04F48460126802F46042B0
:10101000520B9A5CD140C16070BD0000083802409C
:101020000024F400980000200029018802D041F03B
:10103000400101E021F0400101807047114910B5E5
:1010400088420AD1841401212046FFF783FF2046FD
:10105000BDE810400021FFF77DBF0B49884202D157
:101060000121041404E0094988420AD10121C41372
:101070002046FFF757FF2046BDE810400021FFF74C
:1010800051BF10BD0030014000380040003C00401E
:101090000246002012890A4200D001207047808950
:1010A00070478181704730B502884C8802F4415303
:1010B0000A88CD8822438C882C4322430C89224302
:1010C0004C8922438C892243CC8922431A430280D3
:1010D000828B22F400628283098A018230BD000083
:1010E00070B5044622480E4686B050F8240001210F
:1010F000FFF700FF01218803FFF720FF1C480025B0
:101100008DF81050001F8DF8135030F81400039024
:10111000184803A950F82400FFF776FB012E25D1CB
:101120001348C01F015D401E005D00F025F8104807
:10113000801E30F8140000908DF8045008208DF8BF
:10114000050001258DF806506846FFF7DBFA0848D0
:10115000801F005D8DF808000F208DF809008DF8C4
:101160000A008DF80B5002A8FFF77EFE06B070BD96
:10117000FC3B0008A800002010B58A0721F00304FA
:101180000649130F21440F220C689A4094430C60C7
:101190000A68984002430A6010BD00000838014008
:1011A000224900200A6842F480320A604FF4A063AA
:1011B0000A6800F1010012F4003F01D19842F7D112
:1011C0000868800331D519484030026842F08052E7
:1011D00002601748026842F48042026013480830F7
:1011E00002680260026842F400420260026842F44F
:1011F000A0520260031F0F4A1A600A6842F0807210
:101200000A600A689201FCD50B4A40F20561116040
:10121000016821F003010160016841F002010160F1
:101220000168C1F381010229FAD1704700380240F8
:101230000070004008544007003C024010B5FFF722
:1012400005F802F03DFB18B104494FF080500860EA
:10125000BDE810400020FFF700B8000004ED00E0FA
:10126000124810B5016841F470010160104801682E
:1012700041F0010101600E4A00210832116002684C
:101280000C4B1A400260031D0B4A1A60026822F4DC
:101290008022026006480C300160FFF781FF03499D
:1012A0004FF000608039086010BD000088ED00E05C
:1012B00000380240FFFFF6FE1030002400290188AC
:1012C00002D041F0010101E021F0010101807047ED
:1012D00030B589B005A800F05BF94FF40070ADF8A7
:1012E0001C0040F6C31006905320ADF81400144DB6
:1012F0000024ADF8164005A9284600F00BF9684611
:1013000000F0FEF80120ADF802006020ADF800000A
:1013100069462846029400F015F86946284600F010
:1013200041F86946284600F07DF86946284600F0F5
:10133000B7F801212846FFF7C1FF09B030BD000012
:101340000008004030B5028C22F001020284028CB9
:101350008388048B22F0020224F073050C882C434E
:101360008D8915434A882A430C4DA84202D00C4D62
:10137000A8420DD122F00805CA8923F440732A43FC
:1013800022F004058A882A430D8A1D434B8A2B4389
:101390008380048389684163028430BD000001407A
:1013A0000004014070B5028C22F010020284028C0D
:1013B0008488038B0D8823F4E6464FF6FF7303EA17
:1013C000052535438E8922F0200203EA06161643CE
:1013D0004A8803EA02123243104EB04202D0104E45
:1013E000B04215D122F08006CA8924F4406403EA91
:1013F0000212324322F040068A8803EA0212324384
:101400000E8A03EA860626434C8A03EA84043443A0
:101410008480058389688163028470BD0000014077
:101420000004014070B5028C22F480720284028CA8
:101430008488838B0D8823F073031D4322F400738B
:101440008E894FF6FF7202EA06261E434B8802EA97
:1014500003233343104EB04202D0104EB04215D198
:1014600023F40066CB8924F4405402EA0323334377
:1014700023F480668B8802EA032333430E8A02EA50
:10148000061626434C8A02EA04143443848085837A
:101490008968C163038470BD0000014000040140FD
:1014A00070B5028C22F480520284048C8288838B73
:1014B0000D8823F4E6464FF6FF7303EA052535430E
:1014C00024F400568C8903EA043434434E8803EA3A
:1014D00006362643084CA04202D0084CA04205D153
:1014E00022F480440A8A03EA82122243828085839E
:1014F00089680164068470BD000001400004014059
:10150000002101804180818081608181C1810182CF
:101510004182704730B50288164B174C98420DD067
:10152000A0420BD0B0F1804F08D0144DA84205D096
:10153000134DA84202D0134DA84203D122F07005EA
:101540004A882A43104DA84206D0104DA84203D025
:1015500022F440750A892A4302804A68C2620A88D6
:101560000285984201D0A04201D1897A01860121E9
:10157000818230BD000001400004014000040040B1
:1015800000080040000C0040001000400014004023
:101590004FF0FF3141600021018001814180817263
:1015A000704700007CB5234C40F227752946204641
:1015B00000F0ADF860B1214800231F4A19460068C9
:1015C00002F02CF800222946204600F0BFF826E061
:1015D00040F22551204600F09AF838B3204600F03A
:1015E00029F98DF8040002F05FF902460A20009004
:1015F000134800231946006802F08EFA01A8FFF78D
:101600001FFC104800231A4601A9006801F07EFF64
:1016100010B90DA0FFF714FC0EA0FFF711FC06484F
:101620000068002801D001F09BFA7CBD0CA0FFF7F8
:1016300007FCFEE700440040940000203C0000202E
:10164000400000202C000020206265666F7265203B
:101650000A000000206166746572200A0000000024
:10166000206572726F72200A00000000C943018079
:1016700070470029818902D041F4005101E021F432
:10168000005181817047000030B585B000244FF4CF
:1016900016500090ADF808400C20184DADF80440ED
:1016A000ADF80A00ADF80640ADF80C406946284692
:1016B00000F064F840212846FFF7D8FF002240F2EE
:1016C0002771284600F042F8012240F225512846B1
:1016D00000F03CF826208DF8100060208DF81100F5
:1016E0008DF8124001208DF8130004A8FFF7BCFB11
:1016F00001212846FFF7BDFF05B030BD0044004082
:101700000246002012880A4200D00120704730B5FE
:1017100001F01F0201240025C1F3421304FA02F272
:10172000012B0FD0022B0FD0838A4FEA11210088A2
:10173000134204FA01F400EA040001D000B10125CB
:10174000284630BD8389F0E7038AEEE710B5C1F380
:10175000421301F01F040121A140012B07D0022BED
:1017600007D01430002A026805D00A4304E00C3088
:10177000F8E71030F6E78A43026010BD7FB50446F3
:10178000008A0D4620F44051E88808432082A08951
:1017900041F20C618843A9882A8911436A8902436E
:1017A0001143A181A08A20F44071A8890843A08236
:1017B0006846FFF7EFFB1D48844202D01C48844274
:1017C00001D1039800E00298A1890904002900EBE7
:1017D000C00101EB0010296802DA4FEA410101E083
:1017E0004FEA8101B0FBF1F26420B2FBF0F14FEA65
:1017F00001114FEA11136FF018056B4302EB8302DE
:10180000A3891D044FF0320306D503EBC202B2FBDD
:10181000F0F000F0070005E003EB0212B2FBF0F07D
:1018200000F00F00084320817FBD00000010014040
:10183000001401408088C0F308007047C1F308011C
:101840008180704770B586B001210420FFF752FBFC
:1018500001218804FFF75AFB224E07220A21304655
:10186000FFF723F807220B213046FFF71EF800246C
:101870008DF8064001208DF80700022580028DF8C2
:10188000045000908DF8055069463046FEF7BCFFC5
:10189000A80200908DF8045069463046FEF7B4FF68
:1018A0004FF41650ADF80C400290ADF80E40ADF874
:1018B0001040ADF814400C200B4CADF8120002A9FA
:1018C0002046FFF75BFF01212046FFF7D2FE0122F1
:1018D00040F225512046FFF739FF04498020086077
:1018E00006B070BD000802400048004004E100E07E
:1018F00002E008C8121F08C1002AFAD170477047D9
:10190000002001E001C1121F002AFBD17047F0B591
:1019100000261C46CE545B1E3027002805D008DA6E
:10192000C0F100004FF0010616E0CF54A3F101030F
:1019300014E0102A07D190FBF2F502FB15050A2DE1
:1019400001DB373504E090FBF2F502FB150530357D
:1019500090FBF2F0CD545B1E0028EADC102A04D183
:101960007820C854581E9B1E0F5416B12D20C85401
:101970005B1E5B1C0020641C03E0CA5C0A545B1CF9
:10198000401CA342F9DBF0BD002105E001EB810121
:10199000490030391144401C0278002AF6D108462B
:1019A00070470000F0B5ADB000200BA94FEA0D0262
:1019B00000EB800301EB430342F82030401C0B286E
:1019C000F6DB23482349406800EB800001EB8001EF
:1019D00027A800F057FE27A9684600F05FF8264EBA
:1019E000DDE9002307461CA1306800F001FD234D0E
:1019F000002400BFC4EBC40005EB8000009900F098
:101A00002DFEE0B1641C052CF4DB052C15D11C491E
:101A100000209FED1C0A08601B481DA180ED000AF4
:101A20001A4880ED000A306800F0E2FC40F22A30EB
:101A300003461A461146FFF7D7F92DB0F0BDC4EBA7
:101A4000C40005EB80006946C26838469047DCE771
:101A50008C00002068010020636F6D6D616E642052
:101A60006973203D2025732C20617267762069738D
:101A7000203D2025730A000028000020683B000854
:101A80002400002000000000480000204C0000203E
:101A90006E6F20636F6D6D616E640A002DE9F04119
:101AA00086B000250C4680462E466F4618E020285A
:101AB00001D1641C14E02078272806D0222804D005
:101AC000202804D018B178556D1C641CF3E7002061
:101AD0007855054658F82600761C694600F0D2FD78
:101AE00020780028E3D106B03046BDE8F08110B57B
:101AF00000F01EF86420FEF7F0FD0F222021D22016
:101B0000FFF706F800222121D220FFF701F800227A
:101B10002221D220FEF7FCFF00222321D220FEF753
:101B2000F7FF00222421BDE81040D220FEF7F0BFCD
:101B300010B501214C0586B02046FFF7E7F90121D9
:101B40002046FFF7EFF900212046FFF7EBF90121CE
:101B50000220FFF7CFF9C020049002208DF8140076
:101B600003208DF8150001208DF81600164C8DF815
:101B7000170004A92046FEF747FE0422062120464E
:101B8000FEF793FE042207212046FEF78EFE0F4843
:101B900000900020ADF80400ADF808002015ADF865
:101BA0000A004BF6FF710001094CADF80610ADF8C4
:101BB0000C0069462046FEF7D9FE01212046FEF7BB
:101BC000A7FE06B010BD000000040240A086010080
:101BD0000054004006230A22FFF799BE70B516494B
:101BE00000209FED160A08601548174C80ED000A8A
:101BF000144880ED000A20684FF4C8754FF44D7604
:101C000009E0643803461A461146FFF7EDF8284606
:101C1000FEF76DFD2068B042F3D840F22A3003464B
:101C20001A461146FFF7E0F80D4808A10068BDE824
:101C3000704000F0DDBB0000240000200000000028
:101C4000480000204C000020340800406C656164AE
:101C5000696E672066696E69736865640A000000D2
:101C6000280000207FB5474800900123022400226D
:101C700042F2107144A001F00DFF464D23460122AF
:101C8000286445480090042144A001F003FF6864E3
:101C9000002232210F2001F049FBA862002201211D
:101CA0000F2001F043FBE86200220A21032001F02B
:101CB0003DFB286300220521032001F037FB686308
:101CC00000220521032001F031FBA863032200213B
:101CD000012001F02BFBE86320B100231A461946CE
:101CE00001F014FC00F08CFAFFF701FF01F0DCFDBD
:101CF00000240246009423462146286C01F00CFF84
:101D00000094019402940023822229A12A4803947A
:101D100001F0F6FC0094019402940023822227A192
:101D20002848039401F0ECFC0094019402940023F1
:101D3000822225A12648039401F0E2FC009401943C
:101D400002940023822223A12448039401F0D8FCAA
:101D50000094019402940023822221A12348039439
:101D600001F0CEFC0094019402940023822220A171
:101D70002248039401F0C4FC01F034F804B00020C0
:101D800070BD0000193200085475726E4F666654BB
:101D9000696D650000000020A52E000853656E7374
:101DA0006F7253616D706C65526174650000000064
:101DB00070776D6374726C00DD29000855534152D1
:101DC00054000000693200087368656C6C00000004
:101DD000B525000842616C616E636500AD2700089F
:101DE00050697463686374726C000000412A0008D3
:101DF000526F6C6C6374726C00000000DD2B000885
:101E000070B50C4649680EA000F028FC0D4D0E4E32
:101E100078B10EA0616800F021FC50B10CA12868D7
:101E200000F0E6FA30223068BDE870400DA100F005
:101E3000DFBA0DA16268286800F0DAFA6268F2E79A
:101E40007000000028000020340000206E00000018
:101E50007069746368203D20302064656772656531
:101E60000A000000257300007069746368203D203B
:101E70002573203130206465677265650A000000B3
:101E800070B50B4C054620684560E06821688542C6
:101E900001F1040104D2606BBDE8704000F07ABD2E
:101EA000206B00F077FDE06A854200D2E56270BDEC
:101EB000EC00002010B500F0FBFD0F4C2068A0B92D
:101EC0000E4800F059FD0D48143000F055FD0B4848
:101ED000A0601430E06000220C210A2001F026FAF4
:101EE000206030B106A100F047FEBDE8104000F0D0
:101EF000EDBDFEF7ABF9FEE7D0000020BC010020ED
:101F0000546D72510000000070B5124E124C1AE070
:101F100000F092FF3068D0B101F068FD00F0C8FD1C
:101F2000F068C568281D00F02BFCA068401EA0606A
:101F30006068401E606000F0C9FD286B00F0D8FDAD
:101F4000284600F0D5FD60680028E1D170BD01F0A1
:101F50004DFDF8E784020020EC00002030B4036857
:101F60000D46002B0CD0026CC1688C18C46041680F
:101F70008C4200D3C360C168284630BCFEF786B9E6
:101F800030BC704770B51546026C044682B1BDB1D5
:101F9000E068FEF77BF9E168206C091AE1602268CD
:101FA000914202D26168081AE060022D15D019E052
:101FB0002068B8B9606800F0A9FE0020606011E0F8
:101FC000A068FEF763F9216CA0680844A06061680E
:101FD000884207D32068A06004E0A06B10B1A06B1A
:101FE000401EA063A06B401CA06370BD054C00BFE9
:101FF000FFF78AFF2068012801D900F0B1FD00F049
:10200000D1FBF5E7E401002070B500240B4D4160E1
:102010009142006106D8D11A8269914206D2011D0F
:10202000E86807E09A4203D2994201D3012403E011
:10203000011DA86800F0AEFC204670BDD000002055
:1020400000B589B000208DF80C0006218DF80D1028
:1020500001218DF80E108DF810108DF80F108DF8ED
:10206000111002900321009001908DF812108DF84C
:102070001C008DF81300059006908DF81D00684631
:10208000FEF78EFD09B000BD30B587B0264D41E0AA
:102090000498401C3ED0069C606910B1201D00F0E1
:1020A0006FFB02A800F098F80246049830B10128AE
:1020B00030D002281FD003282CD128E00598A16930
:1020C000034601442046FFF79FFF012822D1616AA1
:1020D00020468847E06901281CD10020009005981F
:1020E000A169002342181946204601F015FD88B960
:1020F000FEF7ACF8FEE70598A06128B181181346F9
:102100002046FFF781FF05E0FEF7A0F8FEE7204636
:1021100000F0EEFC00231A4604A9286801F02AF911
:102120000028B5D107B030BDD00000202DE9FC411A
:102130000F46054600F080FE01A800F04DF8044669
:10214000019818B101F052FCBDE8FC81194E37BB73
:10215000A54224D801F04AFCB0682746C068C4688C
:10216000201D00F00DFBE069012811D1A0692B466C
:1021700041193A462046FFF747FF012808D10020C1
:102180000346014600902A46204601F0C5FC18B1DE
:10219000616A20468847D7E7FEF758F8FEE7291B13
:1021A000306800F0FDFC01F021FC0028CCD100F0EB
:1021B000D7FCC9E7D00000200648016B096829B1A7
:1021C000016BC968C9684968C16270474FF0FF3147
:1021D000FAE70000EC00002070B5054601F064FB52
:1021E000064E04467068844203D200F025F80120B0
:1021F00000E0002028602046746070BDD000002000
:1022000010B500214FF00060FEF76AFE4FF44070F9
:10221000FEF75CFE01210020FEF762FFFEF7A6FE3E
:10222000FEF7A8FAFFF754F8FFF72EFAFFF708FFBA
:10223000BDE81040FFF706BBF8B5164D1FE0C068BB
:10224000C4680668201D00F09BFA616A2046884732
:10225000E069012813D1A0693044B04206D9246155
:102260006060211DA86800F095FB08E0002003468F
:10227000014600903246204601F04EFC38B1A86875
:1022800001680029DBD1E968C5E90210F8BDFDF756
:10229000DDFFFEE7D000002004484068401C02D06B
:1022A000FDF7D4FFFEE7FDF7D1FFFEE7E0000020D9
:1022B000074CA068016841B1C0680021D0F8000057
:1022C000FFF734FFFFF7E0FEF3E701210020F7E717
:1022D000D000002070B5044600F0EAFB04F12405AC
:1022E0000AE0606A58B1284601F04EFB08B100F0E0
:1022F000CDFCA06C401EA064A06C0028F1DC4FF067
:10230000FF36A66400F0E2FB00F0D2FB04F11005FA
:102310000AE0206958B1284601F036FB08B100F008
:10232000B5FC606C401E6064606C0028F1DC666483
:10233000BDE8704000F0CABB70B5044600254007F8
:1023400004D004F00700C0F10800044400F074FD5C
:102350000D49486818B90D4820F0070048600A6820
:102360000B4B1019984208D2904206D94B6808606E
:102370009D1801F03BFB15B103E001F037FB00F0C5
:1023800012FA284670BD000024010020B40200208B
:10239000F82B010010B50A480C464A6805A10068F0
:1023A00000F026F80848626806A10068BDE8104001
:1023B00000F01EB8616C6C203D2025730A000000FF
:1023C00028000020257300003000002010B5031FF6
:1023D0004FF0807424381C60C161044981616FF042
:1023E000020160E81112243010BD0000992200089B
:1023F0000FB42DE9F04186B0804600253BA003953F
:10240000006804903AA00EAC00686E1E059013E0C0
:10241000002000F01BFC0D98415D252915D00A29EC
:102420005BD08DF80C100023324603A9404601F022
:102430006DF80028F7D06D1C0D98405D0028E7D19D
:1024400006B0BDE8F0015DF814FB2844407873281D
:1024500008D0642810D063281BD0782826D02528DF
:1024600031D038E080CC002332463946404601F076
:102470004DF80028F7D02EE001CC6946FFF7AAFB03
:10248000002332466946404601F040F80028F7D064
:1024900021E014F8040B8DF80C000023324603A948
:1024A000404601F033F80028F7D014E001CC69462B
:1024B00001F056FB002332466946404601F026F8FB
:1024C0000028F7D007E00023324605A9404601F076
:1024D0001DF80028F7D06D1CADE70023324604A993
:1024E000404601F013F80028F7D0A4E70A0D0000D9
:1024F0002500000038B50AA0FEF7A2FC0A4D4FF0F7
:10250000FF34002322466946E86A00F033FF0028C2
:10251000F7D006A0FEF794FC9DF8000038BD00003F
:102520003131313131200A000000002032323232A4
:1025300032200A0070B50C4649680EA000F08EF8F3
:102540000D4D0E4E78B10EA0616800F087F850B1C5
:102550000CA12868FFF74CFF30223068BDE87040BE
:102560000DA1FFF745BF0DA162682868FFF740FF86
:102570006268F2E7700000002800002038000020A8
:102580006E000000726F6C6C203D20302064656727
:102590007265650A0000000025730000726F6C6CA4
:1025A000203D202573203130206465677265650AFF
:1025B000000000000FF28009224DDFF88C80234ECE
:1025C0006868474600EB800008EB80044A4620A17B
:1025D00016E000BFFFF78EFFC2B20D2A14D00A2A00
:1025E00012D07F2A1BD0082A19D0686800EB80001F
:1025F00007EB8000201A1328ECDA04F8012B15A150
:102600003068FFF7F5FEE5E7002727700D4A10A1B7
:102610003068FFF7EDFEFFF7C5F96F60D0E7686837
:1026200000EB800007EB8000A042D3D2641E0AA119
:102630003068FFF7DDFECDE70D5368656C6C3A7EC0
:10264000240000008C0000206801002028000020E9
:10265000257300002563000008200800024601E001
:10266000521C491C10780B78C01A04D0002805DAD7
:102670004FF0FF307047002BF2D17047FDDD4FF077
:10268000010070474FEA000211F8013B02F8013BDC
:10269000002BF9D17047000070B50C4649681CA0AA
:1026A000FFF7DCFF1B4E1C4D002823D01BA06168E8
:1026B000FFF7D4FFF0B11AA12868FFF799FE302286
:1026C0001CA13068FFF794FE11A0A168FFF7C6FFB8
:1026D000194EB0B111A0A168FFF7C0FF88B117A1D2
:1026E0002868FFF785FE30223068BDE8704011A1F0
:1026F000FFF77EBE16A162682868FFF779FE626860
:10270000DEE719A1A2682868FFF772FEA268EBE76E
:102710007000000034000020280000206E0000003F
:102720007069746368203D20302064656772656558
:102730000A0000002573000038000020726F6C6CE6
:10274000203D2030206465677265650A0000000046
:102750007069746368203D202573203130206465E2
:10276000677265650A000000726F6C6C203D202561
:1027700073203130206465677265650A00000000CF
:10278000D0E9013201699A60D0E901235A604A68B0
:10279000824201D182684A60002202610868401EBC
:1027A0000860704770477047704700001FB54FF4CE
:1027B000FA64204600F04AFA5A480460051D2C606D
:1027C0002E1D3460371D3C6040F6B83000F03EFAF4
:1027D000291F4FF44870086028603060386001227B
:1027E00029215148FEF784FA4F4801222B21401C31
:1027F000FEF77EFA4C4801222821801CFEF778FA69
:10280000494801222A21C01CFEF772FA464846496F
:10281000801C454C0078097840EA01206081E01C6A
:10282000611C0078097840EA0120A0812921D2208A
:10283000FEF704F9251D2B212870D220FEF7FEF8A3
:10284000661D2D213070D220FEF7F8F8A71D282133
:102850003870D220FEF7F2F804F107082A2188F830
:102860000000D220FEF7EAF804F108092C2189F8CB
:102870000000D220FEF7E2F8691D087098F80010F9
:102880002A7841EA0221E18199F80010327841EA80
:1028900002212182397840EA012060829FED230ADB
:1028A000234884ED190A84ED1A0A0025F1EE060A80
:1028B00065629FED201AC0ED000A80ED011AC0ED9F
:1028C000020ADFED1D0A80ED031AC0ED040A84ED53
:1028D000120A84ED130A00F0E7FF02460023009578
:1028E0001946606C01F018F90E4D2E1D371D07F1C9
:1028F000040800BF94ED1A0AD4ED190AD8F80010A4
:10290000BDEEC00AFDEEE00A3868CDE90001CDED6C
:10291000020A8DED030A33682A6808A1A06AFFF74E
:1029200067FDE7E7340800400000002000000000D9
:102930003C0100209A99993F333383405031323A19
:102940002564202C5031333A2564202C5031343A00
:102950002564202C5031353A2564202C616E676C3B
:10296000655F783A2025642C616E676C655F793A03
:102970002025640A0D00000000F108014FF0FF322D
:10298000C0E90112C16001610021016070470021AE
:102990000161704730B50B685A1C02D000F1080283
:1029A00002E0026904E02246546825689D42FAD993
:1029B00053684B6099608A60516008610168491CE6
:1029C000016030BD42684A6093688B6093685960CB
:1029D000916008610168491C016070471CB5164F81
:1029E000164E4FF0FF3840F2726440F22A35002351
:1029F00042466946386B00F0BDFC0028F7D06846B7
:102A0000FEF7C2FFA04201D9204602E0A84200D250
:102A1000284630607060B060F0600028E7D07861D0
:102A2000B861F8610022386232607260B2600120E1
:102A3000F2607862DBE70000000000202C0100203B
:102A40002DED048B82B04FF0FF35114C9FED119AA4
:102A5000B0EE088AF8EE088A00232A466946606BC1
:102A600000F088FC0028F7D06A460BA1A06AFFF7A7
:102A7000BFFC9DF80000702804D06E2805D084EDBE
:102A8000129AE9E784ED128AE6E7C4ED128AE3E7D9
:102A900000000020000000000A5069746368646947
:102AA00072656374696F6E3A2025730A0D00000029
:102AB00010B5FDF7CBFB04484168491CBFF34F8FAD
:102AC000BFF36F8F416010BDE0000020074910B5D3
:102AD000486830B1401E486006D1BDE81040FDF79F
:102AE000BCBBFDF7B3FBFEE710BD0000E00000201B
:102AF00010B5002802D0FDF7A9FBFEE710BD0000CD
:102B000006484FF47A710068B0FBF1F14FF0E02015
:102B1000491E41610721016170470000BC0000208F
:102B200010B5FDF79DFB0C4910280AD34FF0E022A9
:102B3000104490F8F0030A78904202D2FDF786FB29
:102B4000FEE706480068896800F4E060884202D920
:102B5000FDF77CFBFEE710BDE00000200CED00E07F
:102B600004494FF080500860BFF34F8FBFF36F8F61
:102B70007047000004ED00E010B5084B002200BFD4
:102B800053F832401CB1521C082AF9D310BD43F847
:102B9000321003EBC201486010BD00007C01002030
:102BA00070B50D460446FFF783FF616C4FF00000DF
:102BB000491C00D16064A16C491C00D1A064FFF7DE
:102BC00085FFA06B20B9294604F1240000F086F8A7
:102BD0002046BDE87040FFF77DBB00002DED048B63
:102BE00082B04FF0FF35114C9FED119AB0EE088A7C
:102BF000F8EE088A00232A466946A06B00F0BAFB6B
:102C00000028F7D06A460BA1A06AFFF7F1FB9DF8F8
:102C10000000702804D06E2805D084ED139AE9E7EF
:102C200084ED138AE6E7C4ED138AE3E70000002091
:102C3000000000000A526F6C6C646972656374690D
:102C40006F6E3A2025730A0D0000000010B50300D6
:102C500014D00D4A906910B1FDF7F8FAFEE700F0C4
:102C6000EBF8D068C4181068001DFFF789FD2046F6
:102C7000FFF706F900F0BAFE002803D1BDE81040C6
:102C8000FFF76EBF10BD0000EC00002001490120DD
:102C900008627047EC00002070B50C4680B10D4D05
:102CA00029681831FFF776FE2868001DFFF768FDD8
:102CB000601C08D0E8682044BDE87040FFF7E0B829
:102CC000FDF7C4FAFEE72968BDE87040091D024817
:102CD000FFF778BEEC0000209802002070B50D468A
:102CE00070B1094C21681831FFF76CFE2068001D97
:102CF000FFF746FDE0682844BDE87040FFF7C0B824
:102D0000FDF7A4FAFEE70000EC00002010B5040077
:102D10001ED0A16CE06A88421AD0201DFFF730FD5A
:102D2000A06CE062A169002902DBC0F10500A0618E
:102D30000849E06A0A69904200D90861064900EB37
:102D4000800001EB8000211DBDE81040FFF73ABE76
:102D500010BD0000EC000020E401002070B504006C
:102D60002CD0174DE06A2968C96A884226D2A0692A
:102D7000002804DB2868C06AC0F10500A061E16A90
:102D8000104E01EB8101606906EB8101884212D18E
:102D9000201DFFF7F5FC2868C06AE06229698842B7
:102DA00000D9286100EB800006EB8000211DBDE802
:102DB0007040FFF707BE2868C06AE06270BD00007F
:102DC000EC000020E401002010B528B104494A6A53
:102DD0000260C968416010BDFDF738FAFEE70000E7
:102DE000EC0000201FB500240094019402942346B7
:102DF00082220DA10E48039400F082FC012803D129
:102E000000F068FE012804D000280CD1FDF71EFA5E
:102E1000FEE7FDF71BFA074801214161C460BDE8E8
:102E20001F4000F047BA1FBD49444C450000000058
:102E3000ED1F0008EC00002002488169491C8161F7
:102E400070470000EC000020144810B5816911B1F2
:102E50000121016210BD00210162114903E0D2B1DC
:102E60000269521E0261026902EB820251F82220BD
:102E7000002A0269F3D002EB820201EB820101F128
:102E800008034A6852684A609A4201D152684A600F
:102E9000D168016010BDFDF7D9F9FEE7EC00002014
:102EA000E40100202DE9F04701222DED048B2921BA
:102EB000C848FDF71DFFC74801222B21401CFDF724
:102EC00017FFC44801222821801CFDF711FFC148CB
:102ED00001222A21C01CFDF70BFFBE48BD49801C02
:102EE000BC4C0078097840EA0120B4F90A1000B21D
:102EF000401AFDF7D0FA9FEDB81B53EC112BFDF7EC
:102F0000E9F99FEDB71B53EC112BFDF755FA9FED37
:102F1000B61B53EC112BFDF7DDF99FEDB58B53EC90
:102F2000182BFDF749FAFDF7C7FA2065E01C611C74
:102F30000078097840EA0120B4F90C1000B2401A78
:102F4000FDF7A9FA9FEDA41B53EC112BFDF7C2F975
:102F50009FEDA31B53EC112BFDF72EFA9FEDA21B47
:102F600053EC112BFDF7B6F953EC182BFDF724FAAF
:102F7000FDF7A2FA60652921D220FDF75FFD261D2D
:102F80002B213070D220FDF759FD671D2D2138709F
:102F9000D220FDF753FD04F10608282188F800002F
:102FA000D220FDF74BFD04F107092A2189F8000022
:102FB000D220FDF743FD04F1080A2C218AF8000015
:102FC000D220FDF73BFD711D0546087099F8000001
:102FD000317840EA0120B4F90E1000B2401AFDF732
:102FE0005AFA9FED859B53EC192BFDF773F99FED72
:102FF0007C1B53EC112BFDF7DFF9FDF75DFA08EEB2
:10300000900AC4ED168A9AF80000397840EA012047
:10301000B4F9101000B2401AFDF73DFA53EC192B29
:10302000FDF758F99FED6E1B53EC112BFDF7C4F91A
:10303000FDF742FA08EE100A84ED178A98F80000AE
:10304000B4F9121045EA002000B2401AFDF723FA45
:1030500053EC192BFDF73EF99FED611B53EC112B3F
:10306000FDF7AAF9FDF728FA01EE100A84ED181A07
:1030700094ED190ADFED620A08EE200A9FED612A3D
:10308000D4ED142A20EE020ADFED5F1A5F4B3225E1
:1030900002EEE10A18461A4684ED190AD4ED1A2AFE
:1030A00048EEA02A62EE820A94ED152A42EE210A29
:1030B000C4ED1A0AC3ED070A80ED080AC0ED098ABB
:1030C00080ED0A8AD4ED121A71EEE00AC0ED050A0D
:1030D000D4ED131A71EEC01AC0ED061A90ED022A53
:1030E00062EE211A90ED032A42EE481AFDEEE11A33
:1030F00011EE901A2167D0ED001A61EEA00AD0ED12
:10310000011A41EEE80AFDEEE00A10EE900AE066D0
:10311000D2ED040A6A42322860EE810AFDEEE00A2E
:10312000C4ED1D0A01DDE56602E0904200DAE266C8
:10313000322901DD256702E0914200DA226710EEB4
:10314000100A334D334E99464FF0000840F22A37AB
:10315000A84203DC10EE100AB04207D93B461A46DB
:1031600038461146C4F82480FDF73EFED9F81C000D
:10317000A84201DCB04207D93B461A463846114600
:10318000C4F82480FDF730FE606A00281ED0E36E8C
:103190006069256F1844666F401B801BA067A1699A
:1031A0000C4F194429443144E167E2698037D21A4F
:1031B0002A44921B3A60246AE31A5B1B33447B6007
:1031C000BDEC048BBDE8F047FDF70EBEBDEC048BF3
:1031D000BDE8F08700000020B81E85EB51B8AE3F77
:1031E0000000000000408F400000000000806640AA
:1031F00000000000FA21094000000000008021408A
:103200006F12833BA4707D3F0AD7233C3C01002012
:1032100000000C4200000CC210B50B4C00209FEDCA
:103220000B0A606240F22A30034684ED120A1A4605
:1032300084ED130A1146FDF7D7FDA06ABDE81040E2
:1032400003A1FFF7D5B80000000000200000000037
:10325000313020736563207475726E206F6666204E
:103260006D6F746F720A0D008EB0DFF84080104DE4
:103270004FF0FF376E46444600233A466946A06A3F
:1032800000F078F80028F7D000240BE080212846D1
:10329000FEF736FA0028F9D0315D2846FEF7CEFA5F
:1032A000641CE4B2305D0028E5D0EFE700000020A8
:1032B0000044004070B5194A1478FF20107011784E
:1032C000174B01F0500018700720986006E000BF0F
:1032D0004FEA4161A0F101004FEA11610D06F7D4F8
:1032E000000200F4E060986014700E48016841F438
:1032F00070010160016841F070410160FFF700FC5E
:1033000000205860FCF76CFF0748016841F040411D
:103310000160FCF757FF002070BD000000E400E0F2
:10332000E000002020ED00E034EF00E02DE9F04166
:1033300017460E46050019D05420FEF7FDFF040085
:1033400014D005FB06F0401CFEF7F6FF206050B1DC
:10335000C4E90F560121204600F0A3F884F850700C
:103360002046BDE8F0812046FFF7C2FBFCF76EFF68
:10337000FEE700002DE9FF41002582B098460E4689
:10338000040001D01EB107E0FCF760FFFEE7206CEF
:1033900010B1FCF75BFFFEE700F078FA002720B9D8
:1033A000049810B1FCF752FFFEE7FFF781FBA06B1A
:1033B00050B331462046E568FEF7D0FDB8F1000F66
:1033C00010D0E560606A38B104F1240000F0DCFA46
:1033D00010B100BFFFF7C4FBFFF778FB012006B078
:1033E000BDE8F081A06B401EA063206810B900F01A
:1033F00047FA606020690028EED004F1100000F068
:10340000C3FA0128E6D0E7E7049808B11DB106E049
:10341000FFF75CFB1DE06846FFF7D6FC0125FFF7D0
:1034200055FBFFF709FDFFF743FB606C401C00D123
:103430006764A06C401C00D1A764FFF747FB04A998
:10344000684600F031F930B12046FEF743FF00F046
:10345000CDFA0020C3E7FFF72BFBA06B38B1FFF7D5
:1034600035FB2046FEF736FF00F0C0FA9DE7FFF778
:103470002DFB206830B9FFF71BFB6068FFF76EFC7F
:10348000FFF724FB04F124000499FFF705FC204614
:10349000FEF720FF00F0AAFA002886D1FFF760FBB4
:1034A00083E770B50D46040023D0FFF701FBD4E994
:1034B0000F20216802FB001161600021A1632168D7
:1034C000A1600A46E06B216C401E00FB01214FF019
:1034D000FF30E1606064A06404F1100065B1FFF7A3
:1034E0004BFA04F12400FFF747FAFFF7EFFA012047
:1034F00070BDFCF7ABFEFEE721690029F5D000F0B6
:1035000043FA0128F1D1FFF72BFBEEE72DE9FF414C
:10351000002682B01D468846040003D0B8F1000F93
:1035200003D007E0FCF792FEFEE7206C10B1FCF739
:103530008DFEFEE7022D05D1E06B012802D0FCF7DD
:1035400085FEFEE700F0A2F9002720B9049810B12B
:10355000FCF77CFEFEE7FFF7ABFAA06BE16B88425D
:1035600005D3022D03D00498B0B1C6B11BE02A46A2
:1035700041462046FEF706FD606A38B104F124009A
:1035800000F002FA012801D1FFF7EAFAFFF79EFAEC
:10359000012006B0BDE8F081FFF798FA1DE068460B
:1035A000FFF712FC0126FFF791FAFFF745FCFFF742
:1035B0007FFA606C401C00D16764A06C401C00D195
:1035C000A764FFF783FA04A9684600F06DF830B1EC
:1035D0002046FEF77FFE00F009FA0020D9E7FFF74A
:1035E00067FAA06BE16B884210D1FFF76FFA04F124
:1035F00010000499FFF750FB2046FEF76BFE00F029
:10360000F5F90028A7D1FFF7ABFAA4E7FFF75EFAB8
:103610002046FEF75FFE00F0E9F99CE72DE9F04156
:103620001D4616460F46040001D01FB107E0FCF707
:103630000DFEFEE7206C10B1FCF708FEFEE7022D40
:1036400005D1E06B012802D0FCF700FEFEE7FFF792
:1036500067FAFCF7FBFD8046A06BE16B884208D35C
:10366000022D06D000244046FCF7F7FD2046BDE8B9
:10367000F0812A4639462046FEF784FCA06C401CA7
:1036800004D0A06C401CA0640124ECE7606A002810
:10369000FAD004F1240000F077F90028F4D0002ECD
:1036A000F2D001203060EFE770B50D46040019D06C
:1036B000DDB1FFF7FDF9114AD1682868431C0FD02E
:1036C0002368526A934202D062688A4210D96268C3
:1036D000891A81420CD2401A28602046FFF774FBF9
:1036E000002406E0FCF7B2FDFEE7FCF7AFFDFEE7C5
:1036F0000124FFF7EBF9204670BD0000EC0000202C
:103700002DE9F05F1546DDE90B840A9E9B4689464C
:103710005FEA000A04D0052E05D3FCF797FDFEE70B
:10372000FCF794FDFEE74C20FEF706FE07001CD0D8
:103730001CB9A800FEF700FE04463C63200011D02F
:10374000A900A522FCF7B4FD6FF00301386B01EB73
:1037500085013C46084420F00707780708D0FCF7AD
:1037600075FDFEE73846FFF7C3F94FF0FF3480E000
:1037700049463546002022180B5C82F834300A5C3A
:1037800012B1401C0A28F6D3002184F83D10052D03
:1037900000D30425E562201DA564FFF7F8F804F1C5
:1037A0001800FFF7F4F8C5F105012461A1615A463C
:1037B000514638466462FEF709FE2060B8F1000FFA
:1037C00001D0C8F80040FFF773F92B4DA868401CE2
:1037D000A8602868DFF8A48010B1686948B32DE0BC
:1037E0002C60A868012829D15FF0000707EB87014A
:1037F00008EB8100FFF7C0F87F1C052FF6D31F48A8
:103800006430FFF7B9F81D487830FFF7B5F81B486A
:103810008C30FFF7B1F81948A030FFF7ADF8174822
:10382000B430FFF7A9F81548643028631430686392
:1038300004E02868C06AB04200D82C60A86A401C26
:10384000A8622064E06A2969884200D9286100EBF7
:10385000800108EB8100211DFFF7B4F80124FFF778
:1038600035F9686928B12868C06AB04201D2FFF70B
:1038700077F92046BDE8F09FEC000020E40100202D
:103880000148006870470000EC00002005484169CD
:1038900019B1806918B100207047012070470220DB
:1038A00070470000EC00002010B5FFF701F9034855
:1038B000C468FFF70BF9204610BD0000EC000020A3
:1038C0002DE9F0412E4C0026A06918B1E069401C9A
:1038D000E0614DE0E068401CE060E76877B9206B8C
:1038E000006810B1FCF7B2FCFEE7206B616B21634E
:1038F0006063606A401C6062FEF75EFCE06ADFF8AD
:103900008480874209D3206B006890B1206BC06827
:10391000C568686887420FD2E0622068C06A00EB21
:10392000800158F82100012800D90126E069F8B18A
:1039300020E04FF0FF30EFE7281DFEF721FFA86AD7
:1039400018B105F11800FEF71BFFE86A21698842EB
:1039500000D9206100EB800108EB8100291DFFF7F1
:1039600031F8E86A2168C96A8842CCD30126CAE7DF
:10397000FEF71AFF206A00B101263046BDE8F0814B
:10398000EC000020E401002070B5C068C46854B1A8
:1039900004F118000646FEF7F3FE124DA86928B19F
:1039A0003146114811E0FCF751FCFEE7201DFEF7FF
:1039B000E7FEE06A2969884200D928610A4900EBDC
:1039C00080008C3901EB8000211DFEF7FBFFE06ACF
:1039D0002968C96A884202D90120286270BD002086
:1039E00070BD0000EC000020700200202DE9F047BF
:1039F000264C0027A06938B1FFF75AF8A069401E8D
:103A0000A061A06918B13BE0FCF720FCFEE7A168CB
:103A10001F4E0120A1B3A6F18C0980463068E0B1A9
:103A2000F068C56805F11800FEF7AAFE281DFEF72C
:103A3000A7FEE86A2169884200D9206100EB800175
:103A400009EB8100291DFEF7BDFFE86A2168C96AFC
:103A50008842E3D3C4F82080E0E7E06950B14546EE
:103A6000E06938B1FFF72CFF00B12562E069401E24
:103A7000E061F5E7206A012802D10127FFF770F81D
:103A8000FFF724F83846BDE8F0870000EC0000207E
:103A9000700200202DE9F0471E46DDF82090174601
:103AA0000D00804612D02820FEF746FC04000AD004
:103AB000FEF700FAC4F80080C4E90657C4E90869B3
:103AC000201DFEF764FF2046BDE8F087FCF7BEFB33
:103AD000FEE700001FB5FEF7EDF90B48006870B176
:103AE00000200221CDE900100290034603904FF41C
:103AF000827206A10748FFF703FE002802D1FCF7F7
:103B0000A5FBFEE704B010BDD0000020546D72206C
:103B100053766300B1220008FEB5104C1D460346E3
:103B200027680020089E002F08D08DE80E0035B1D0
:103B300000232A4669463846FFF770FDFEBDFFF7B1
:103B4000A5FE02284FF0000305D000226946206838
:103B5000FFF7DCFCFEBD3246F8E70000D000002095
:103B60000A231022FDF7D3BE70776D00000000001D
:103B7000000000009523000870776D000000000031
:103B8000000000007069746368000000000000001D
:103B9000011E0008706974636800000000000000E6
:103BA000726F6C6C000000000000000035250008FA
:103BB000726F6C6C000000000000000074756E6590
:103BC00000000000000000009926000874756E6572
:103BD00000000000000000006C616E640000000046
:103BE00000000000DD1B00086C656164000000003F
:103BF00000000000000006000100010001000000BC
:103C000000100020004000800800000008000000B4
:103C10000800000008000000383C000800000020F8
:103C20002C0100007E060008643C00082C010020E6
:103C3000843101000019000801892210E30A0D2DCA
:103C400001020304042506070809130240DA0C04E4
:103C5000AC7A030A2C492801121AAA0101301AFF72
:043C6000010110004E
:040000050800018965
:00000001FF
